:1000000018C025C024C0ACC022C021C020C01FC061
:100010001EC01DC0000000003700000000003800B6
:100020000202020202020102040810200102000082
:10003000000011241FBECFE9CDBF20E0A0E6B0E054
:1000400001C01D92A936B207E1F7D4D086C1D8CF3E
:10005000E0E3F0E02491EAE2F0E09491E4E2F0E001
:10006000E491EE2301F1222351F0213029F02230D6
:1000700031F42FB52F7D02C02FB52F772FBDF0E0C3
:10008000EE0FFF1FE65EFF4FA591B4912FB7F894D6
:10009000811105C08C91E92FE095E82302C0EC9115
:1000A000E92BEC932FBF08953FB7F894809165003A
:1000B00090916600A0916700B091680022B708B6E1
:1000C00001FE05C02F3F19F00196A11DB11D3FBFD4
:1000D000BA2FA92F982F8827BC01CD01620F711D5F
:1000E000811D911D27E030E040E050E0C0D0B90113
:1000F000CA0108958F929F92AF92BF92CF92DF92E2
:10010000EF92FF92D1DF4B015C0184EFC82EDD241A
:10011000D394E12CF12CC8DFDC01CB0188199909BB
:10012000AA09BB09883E9340A105B10558F021E01A
:10013000C21AD108E108F10888EE880E83E0981E03
:10014000A11CB11CC114D104E104F10421F7FF90FA
:10015000EF90DF90CF90BF90AF909F908F900895D9
:100160001F920F920FB60F9211242F933F938F93EC
:100170009F93AF93BF938091610090916200A09193
:100180006300B09164003091600026E6230F2D37A4
:1001900020F40196A11DB11D05C029EE230F029682
:1001A000A11DB11D209360008093610090936200B7
:1001B000A0936300B0936400809165009091660005
:1001C000A0916700B09168000196A11DB11D8093B8
:1001D000650090936600A0936700B0936800BF919C
:1001E000AF919F918F913F912F910F900FBE0F90E4
:1001F0001F90189578948FB582608FBD8FB5816000
:100200008FBD83B7826083BF83B7816083BF89B7A7
:10021000826089BF329A319A3098379AEAE2F0E0E8
:100220002491E4E2F0E08491882399F090E0880F33
:10023000991FFC01EC5EFF4FA591B491FC01E65EB5
:10024000FF4F859194918FB7F894EC91E22BEC934A
:100250008FBFC0E0D0E081E0FBDE4CDF80E0F8DE65
:1002600049DF2097C1F3CCDEF6CF68940013E89401
:10027000A0E0B0E0EDE3F1E01DC0EFEFE7F95901D8
:100280006A015E23550FEE08FE2C87019B01AC012D
:100290009E23990F660B762FCB0131D0CDB7DD278A
:1002A000EAE01FC02F923F924F925F926F927F922F
:1002B0008F929F92AF92BF92CF92DF92EF92FF9276
:1002C0000F931F93CF93DF93CDB7CA1BCDBFDD270D
:1002D00009942A88398848885F846E847D848C8458
:1002E0009B84AA84B984C884DF80EE80FD800C8161
:1002F0001B81AA81D981CE0FCDBFCA2F0895DF936C
:10030000CF939F92A0E49A2E0024D001E001F00147
:1003100016950795F794E794D794C794B794A79444
:1003200048F41068A20FB31FC41FD51FE61FF71FA4
:10033000081E191E220F331F441F551F661F771FEB
:10034000881F991F9A9421F79D01AE01BF01C0013A
:0E03500011249F90CF91DF910895F894FFCF74
:00000001FF
